{
  "abi": [
    {
      "type": "constructor",
      "inputs": [],
      "stateMutability": "nonpayable"
    },
    {
      "type": "function",
      "name": "addCar",
      "inputs": [
        {
          "name": "car",
          "type": "tuple",
          "internalType": "struct CarRenting.Car",
          "components": [
            {
              "name": "hp",
              "type": "uint16",
              "internalType": "uint16"
            },
            {
              "name": "fuelLevel",
              "type": "uint16",
              "internalType": "uint16"
            },
            {
              "name": "isRented",
              "type": "bool",
              "internalType": "bool"
            },
            {
              "name": "rentedTo",
              "type": "address",
              "internalType": "address"
            }
          ]
        }
      ],
      "outputs": [],
      "stateMutability": "nonpayable"
    },
    {
      "type": "function",
      "name": "rentCar",
      "inputs": [
        {
          "name": "owner",
          "type": "address",
          "internalType": "address"
        }
      ],
      "outputs": [],
      "stateMutability": "nonpayable"
    },
    {
      "type": "function",
      "name": "rents",
      "inputs": [
        {
          "name": "",
          "type": "address",
          "internalType": "address"
        }
      ],
      "outputs": [
        {
          "name": "hp",
          "type": "uint16",
          "internalType": "uint16"
        },
        {
          "name": "fuelLevel",
          "type": "uint16",
          "internalType": "uint16"
        },
        {
          "name": "isRented",
          "type": "bool",
          "internalType": "bool"
        },
        {
          "name": "rentedTo",
          "type": "address",
          "internalType": "address"
        }
      ],
      "stateMutability": "view"
    }
  ],
  "bytecode": {
    "object": "0x6080604052348015600e575f5ffd5b5061032f8061001c5f395ff3fe608060405234801561000f575f5ffd5b506004361061003f575f3560e01c80634f1d221f146100435780639fdc8f051461009a578063c70676451461011e575b5f5ffd5b61009861005136600461024a565b335f90815260208181526040909120825181549390920151640100000000600160c81b031961ffff918216620100000263ffffffff19909516919093161792909217169055565b005b6100e86100a83660046102d9565b5f6020819052908152604090205461ffff8082169162010000810490911690640100000000810460ff16906501000000000090046001600160a01b031684565b6040805161ffff9586168152939094166020840152901515828401526001600160a01b0316606082015290519081900360800190f35b61009861012c3660046102d9565b6001600160a01b0381165f9081526020819052604090208054640100000000900460ff16156101975760405162461bcd60e51b815260206004820152601260248201527110d85c88185b1c9958591e481c995b9d195960721b60448201526064015b60405180910390fd5b805461ffff16158015906101b55750805462010000900461ffff1615155b6101f65760405162461bcd60e51b815260206004820152601260248201527110d85c88191bd95cc81b9bdd08195e1a5cdd60721b604482015260640161018e565b8054650100000000003302640100000000600160c81b03199091161764010000000017905550565b803561ffff8116811461022f575f5ffd5b919050565b80356001600160a01b038116811461022f575f5ffd5b5f608082840312801561025b575f5ffd5b506040516080810167ffffffffffffffff8111828210171561028b57634e487b7160e01b5f52604160045260245ffd5b6040526102978361021e565b81526102a56020840161021e565b6020820152604083013580151581146102bc575f5ffd5b60408201526102cd60608401610234565b60608201529392505050565b5f602082840312156102e9575f5ffd5b6102f282610234565b939250505056fea26469706673582212203202b0649349b07120088f9e282bc0fa86d2255293d02c6c331b4b3d5d55f9da64736f6c634300081c0033",
    "linkReferences": {}
  },
  "methodIdentifiers": {
    "addCar((uint16,uint16,bool,address))": "4f1d221f",
    "rentCar(address)": "c7067645",
    "rents(address)": "9fdc8f05"
  },
  "id": 0
}